:0400000068EF00F0B5
:10000800FACF31F0FBCF32F0E9CF33F015EF07F03C
:10001800D8CF3FF0E8CF40F0E0CF41F0FACF42F040
:10002800FBCF43F0E9CF44F0EACF45F0E1CF46F00B
:10003800E2CF47F0D9CF48F0DACF49F0F3CF4AF012
:10004800F4CF4BF0F6CF4CF0F7CF4DF0F8CF4EF0A1
:10005800F5CF4FF09DB89EA812D09E9829A00FD03A
:1000680030502F18D8B40BD03050010D010EF324A6
:10007800D96E000EF420DA6EDF50AD6E302A9DBACC
:1000880000D04FC0F5FF4EC0F8FF4DC0F7FF4CC081
:10009800F6FF4BC0F4FF4AC0F3FF49C0DAFF48C07F
:1000A800D9FF47C0E2FF46C0E1FF45C0EAFF44C0B0
:1000B800E9FF43C0FBFF42C0FAFF41C0E0FF40C078
:0C00C800E8FF3FC0D8FF100048EF07F031
:100E00000045786974204D2D4D6F646520202020A9
:100E100020202020004C6967687420536574746931
:100E20006E677320202020200000EACF34F0E1CF4D
:100E300035F0E2CF36F0D9CF37F0DACF38F0F3CF54
:100E400039F0F4CF3AF0F6CF3BF0F7CF3CF0F8CFE3
:100E50003DF0F5CF3EF03EC0F5FF3DC0F8FF3CC091
:100E6000F7FF3BC0F6FF3AC0F4FF39C0F3FF38C0CC
:100E7000DAFF37C0D9FF36C0E2FF35C0E1FF34C02A
:100E8000EAFF33C0E9FF32C0FBFF31C0FAFF1100B7
:100E900001EEFFF012EEEEF0EE6AE550E150FCE1FB
:100EA000E250FAE101EE00F010EEFFF0EE6AE550DC
:100EB000E150FCE1E250FAE100EE60F0800EEE6AF3
:100EC000E806FDE100EE01F0300EEE6AE806FDE115
:100ED0001A0EF66E100EF76E000EF86E0900F5CFC2
:100EE00051F00900F5CF52F00900F5CF53F00001A1
:100EF000E1EF07F0700E95160E012251F00B090973
:100F00000E01226F0E012351F00B09090E01236F10
:100F10000E0124510F0B80090E01246F000E0F01EA
:100F20002C6F000E0F012B6F0F012E990F012F8FC9
:100F3000619A0F012F890E012C51F00B07090E0148
:100F40002C6F1200F9EC07F00BEC08F0506E07EC78
:100F500008F0B4EC07F0EBEC07F0F4EC07F07AECF7
:100F600007F003EC08F012001D0E0E01826F010E57
:100F70000E01836F0E0E0E01846F000E0E01836F43
:100F80000E018B930E018B8F1200FEEC07F02E30BA
:100F9000E832E832030B010AD8B403D0030AD8A41C
:100FA000010AD4EC07F012002E30030B000AD8B46B
:100FB0001200010AD8B41200030AD8B41200010AC0
:100FC0001200F28EF28CF28CA2EC07F0F28EF28C10
:100FD000C5EC07F0FDD793929394939693989598C8
:100FE000959A959C959E1200949E5450010A546EB9
:100FF0001200280EC66E4B0EC86E12000E018D85B3
:101000000E018D9512000F015F8F2E901200CB689C
:0E101000070ECA6E1200000E1200D00702007A
:020000040001F9
:10FFF000C0F58BF302F0FFF703FEF7FC1CF0D0F125
:00000001FF
