:0400000068EF00F0B5
:10000800FACF31F0FBCF32F0E9CF33F015EF07F03C
:10001800D8CFE0F0E8CFE1F0E0CFE2F0FACFE3F0BC
:10002800FBCFE4F0E9CFE5F0EACFE6F0E1CFE7F087
:10003800E2CFE8F0D9CFE9F0DACFEAF0F3CFEBF08E
:10004800F4CFECF0F6CFEDF0F7CFEEF0F8CFEFF01D
:10005800F5CFF0F09DB89EA812D09E9829A00FD099
:1000680030502F18D8B40BD03050010D010EF324A6
:10007800D96E000EF420DA6EDF50AD6E302A9DBACC
:1000880000D0F0C0F5FFEFC0F8FFEEC0F7FFEDC0FD
:10009800F6FFECC0F4FFEBC0F3FFEAC0DAFFE9C0FB
:1000A800D9FFE8C0E2FFE7C0E1FFE6C0EAFFE5C02C
:1000B800E9FFE4C0FBFFE3C0FAFFE2C0E0FFE1C0F4
:0C00C800E8FFE0C0D8FF100048EF07F090
:100E00000045786974204D2D4D6F646520202020A9
:100E100020202020004C6967687420536574746931
:100E20006E677320202020200000EACF34F0E1CF4D
:100E300035F0E2CF36F0D9CF37F0DACF38F0F3CF54
:100E400039F0F4CF3AF0F6CF3BF0F7CF3CF0F8CFE3
:100E50003DF0F5CF3EF03EC0F5FF3DC0F8FF3CC091
:100E6000F7FF3BC0F6FF3AC0F4FF39C0F3FF38C0CC
:100E7000DAFF37C0D9FF36C0E2FF35C0E1FF34C02A
:100E8000EAFF33C0E9FF32C0FBFF31C0FAFF1100B7
:100E900002EE00F010EEFFF0EE6AE550E150FCE1EA
:100EA000E250FAE101EE00F0AF0EEE6AE806FDE175
:100EB00000EE60F0800EEE6AE806FDE100EE01F063
:100EC000300EEE6AE806FDE1100EF66E100EF76EBB
:100ED000000EF86E0900F5CF40F00900F5CF41F0A3
:100EE0000900F5CF42F00001DCEF07F0700E951617
:100EF0000E012251F00B09090E01226F0E01235140
:100F0000F00B09090E01236F0E0124510F0B80090C
:100F10000E01246F000E0F012C6F000E0F012B6FBE
:100F20000F012E990F012F8F619A0F012F890E014A
:100F30002C51F00B07090E012C6F1200F4EC07F096
:100F400006EC08F03F6E02EC08F0B0EC07F0E6ECBF
:100F500007F0EFEC07F076EC07F0FEEC07F012007C
:100F60001D0E0E01826F010E0E01836F0E0E0E011B
:100F7000846F000E0E01836F0E018B930E018B8F19
:100F800012002E30E832030B000AD8B41200010A16
:100F9000D8B41200030AD8B41200010A1200F9EC06
:100FA00007F02E38030B010AD8B403D0030AD8A4E3
:100FB000010AC1EC07F01200F28EF28CF28C9EEC6A
:100FC00007F0F28EF28CCFEC07F0FDD7939293945A
:100FD000939693989598959A959C959E1200949EB9
:100FE0004350010A436E1200280EC66E4B0EC86EA7
:100FF00012000E018D850E018D9512000F015F8F7D
:101000002E901200CB68070ECA6E1200000E12005E
:04101000D007020003
:020000040001F9
:10FFF00080F58BF302F0FFF703FEF7FC1CF0D0F165
:00000001FF
